:10000000FDC0000016C1000014C1000012C10000B4
:1000100010C100000EC100000CC100000AC10000A8
:1000200008C1000006C100003BC4000052C400002B
:1000300000C10000FEC00000FCC00000FAC00000CB
:10004000F8C00000F6C00000F4C00000F2C00000DC
:10005000F0C00000EEC00000ECC00000EAC00000EC
:10006000E8C00000E6C00000E4C00000E2C00000FC
:10007000E0C00000DEC00000DCC000006DC2000077
:10008000D8C00000D6C00000D4C00000D2C000001C
:10009000D0C00000CEC00000CCC00000CAC000002C
:1000A000C8C00000C6C00000C4C00000C2C000003C
:1000B000C0C00000BEC00000BCC00000BAC000004C
:1000C000B8C00000B6C00000B4C00000B2C000005C
:1000D000B0C00000AEC00000ACC00000AAC000006C
:1000E000A8C00000A6C00000A4C00000A2C000007C
:1000F000A0C000009EC000009CC000009AC000008C
:1001000098C0000096C0000094C0000092C000009B
:1001100090C000008EC000008CC000008AC00000AB
:1001200088C0000086C0000084C0000082C00000BB
:1001300080C000007EC000007CC000007AC00000CB
:1001400078C0000076C0000074C0000072C00000DB
:1001500070C000006EC000006CC000006AC00000EB
:1001600068C0000066C0000064C0000057C70000FF
:1001700060C0000095C700005CC000005AC00000CD
:1001800058C0000056C0000054C0000052C000001B
:1001900050C000004EC000004CC000004AC000002B
:1001A00048C0000046C0000044C0000042C000003B
:1001B00040C000003EC000003CC000003AC000004B
:1001C00038C0000036C0000034C0000032C000005B
:1001D00030C000002EC000002CC000002AC000006B
:1001E00028C0000026C0000024C0000022C000007B
:1001F00020C000001EC000001CC0000011241FBE53
:10020000CFEFDFE2DEBFCDBF10E2A0E0B0E2E2ED73
:10021000F1E102C005900D92A43EB107D9F725E2A5
:10022000A4EEB0E201C01D92A938B207E1F7E8D50B
:10023000CEC7E6CECF93DF93EB015ED28883DF910A
:10024000CF910895A6C2089568C20895AF92BF9253
:10025000CF92DF92EF92FF920F931F93CF93DF9392
:100260001F92CDB7DEB741155105E1F0262F372F8C
:100270005A01A20EB31E89016C01C21AD30A76017B
:10028000E00EF11EBE016F5F7F4FC701D3DFF801A3
:1002900061918F018981681711F0C701D3DF0A15B9
:1002A0001B0569F70F90DF91CF911F910F91FF9080
:1002B000EF90DF90CF90BF90AF900895CF92DF92F4
:1002C000EF92FF920F931F93CF93DF9300D000D054
:1002D000CDB7DEB77C016B018A0140E050E0B80188
:1002E000C601F4D169837A838B839C83A801B6010C
:1002F000C701ACDF42E050E0BE016F5F7F4FC80135
:100300008E0D9F1DA3DF2496CDBFDEBFDF91CF9161
:100310001F910F91FF90EF90DF90CF900895AF92D3
:10032000BF92CF92DF92EF92FF920F931F93CF93E2
:10033000DF9300D0CDB7DEB75C017B018A0184DF9B
:1003400040E050E0B801C701C1D16B017C0142E03F
:1003500050E0BE016F5F7F4FC8018A0D9B1D74DFA7
:1003600081E029813A812C153D0509F080E00F904C
:100370000F90DF91CF911F910F91FF90EF90DF9041
:10038000CF90BF90AF90089588E0E0E4F6E08783D7
:1003900008950F931F93FC01EE0FFF1F8E0F9F1FF9
:1003A000FC01EE0FFF1FEE0FFF1FE55FFB4D6183AA
:1003B000728346835783208731870287138781E0C2
:1003C0008083448355831F910F910895FF920F936B
:1003D0001F93CF93DF9300E010E0CBE0D4E2FF2443
:1003E000F3948881882309F18C819D8101978C8306
:1003F0009D83892BD1F4EA85FB850995F801E55F9A
:10040000FB4D83818F258383882319F08E819F8103
:1004100002C0888599858C839D8389819A81019703
:1004200089839A83892B09F418822C96045F1F4FC5
:1004300008311105B1F6DF91CF911F910F91FF9017
:1004400008950F931F930091232410912424209149
:100450002524309126240F5F1F4F2F4F3F4F0093CD
:1004600023241093242420932524309326242FEF33
:100470003FEFE0E0F4E022873387DCD1A7DF1F9174
:100480000F9108958FEF8093700080937100809397
:100490007200809373008093740080937500809342
:1004A00076008FB7F894E0E5F0E090819260908359
:1004B0008FBF818181FFFDCF61E080E490E075D046
:1004C0008FB7F894E0E5F0E090819E7F90838FBF36
:1004D00081E0E0E4F0E0838308952FB7F894FC0115
:1004E000E059FF4F60958081682360832FBF089596
:1004F000FC01128213824483440F41504583608380
:10050000718380E090E00895CF93DF93FC017096B3
:1005100020E030E0C62FD0E0DE01022E02C0B5950B
:10052000A7950A94E2F7A0FD50832F5F3F4F3196C5
:100530002830310589F740FF0AC041FF03C0FC01A4
:10054000658302C0FC016683FC01618302C0FC017B
:100550006283DF91CF9108951F920F920FB60F9291
:1005600011242F933F934F935F936F937F938F93B8
:100570009F93AF93BF93EF93FF93E091E420F091AB
:10058000E520309709F00995FF91EF91BF91AF9168
:100590009F918F917F916F915F914F913F912F919B
:1005A0000F900FBE0F901F9018951BBEFC0128EDF9
:1005B00024BF608308958093D30008950F931F9301
:1005C000E0EDF0E02081206820834091E62050910A
:1005D000E7206091E8207091E9204483052F162FD1
:1005E000272F332705838B01222733270683472FA5
:1005F00055276627772747831092E6201092E72039
:100600001092E8201092E920019719F4808180620D
:100610008083E0EDF0E08081807F80838081816055
:1006200080831F910F9108950F931F93E1EDF0E0E8
:10063000808181608083808180FDFDCF8091D000AA
:1006400085FF2DC08091D4003091D5002091D60037
:100650004091D70090E0A0E0B0E0B42B932BA22B08
:10066000E0E240E050E0BA01440F551F661F771FDB
:100670008C019D010170112722273327400F511F44
:10068000621F731FB695A79597958795E15061F7FF
:100690008A019B01009510952095309509C08091A5
:1006A000D4009091D500192F00E0082B20E030E015
:1006B000E0EDF0E08081807F808380818083602F07
:1006C000712F822F932F1F910F9108950F931F93D6
:1006D000CF93DF938C01EB01CA0170DF209731F0DB
:1006E000F80181918F0167DF2197D1F79DDFDF91BD
:1006F000CF911F910F910895E0ECF1E0278522231F
:10070000ECF3ECECF1E0208128602083DC01B05FA9
:100710008C919081977F90830895CF93DF939C0174
:10072000862F972FE0ECF1E0A785AA23ECF3CCEC21
:10073000D1E0688168606883305F622F732F37D59E
:100740008881877F8883DF91CF910895E0ECF1E085
:1007500087858823ECF3E0ECF1E0878581FF06C014
:1007600086E3828761E08BEC91E01FCF0895E0EC97
:10077000F1E097859923ECF3ECECF1E0908198603F
:100780009083A82FB0E0B05F6C938081877F8083D7
:100790000895FF920F931F93CF93DF93182FF92E95
:1007A000C62FE0ECF1E00285D1DFE0ECF1E0278537
:1007B0002223ECF36C2F812FDADFC0ECD1E01A8218
:1007C000F982188385E38A8761E08BEC91E0EDDEA6
:1007D0000A87DF91CF911F910F91FF9008950F939A
:1007E0001F93E0E0F4E0818180FDFDCF2FB7F89406
:1007F0000091032410910424E0E0F4E080859185C9
:10080000009729F4338130FF02C00F5F1F4F2FBFC5
:1008100020E030E0980111270027A0E0B0E0082B8D
:10082000192B2A2B3B2B602F712F822F932F1F9177
:100830000F910895E0E0F4E021E02283648775875A
:1008400060930724709308248093052490930624D2
:10085000818180FDFDCFE0E0F4E082E0838385E0EC
:10086000828308958093092490930A24089564E074
:1008700080E090E032DEE0E0F4E08FEF9FEF8287EF
:100880009387108611868FB7F894A0E0B4E29C910C
:100890009F5F9C938FBF81E0828384E08083089573
:1008A0001F920F920FB60F9211248F939F93EF9385
:1008B000FF93E3E0F4E2808191810196808391834C
:1008C000FF91EF919F918F910F900FBE0F901F900E
:1008D00018951F920F920FB60F921124CF92DF92AC
:1008E000EF92FF920F931F932F933F934F935F933A
:1008F0006F937F938F939F93AF93BF93EF93FF93E8
:100900004091032450910424809105249091062461
:1009100048175907F0F181E0E0E0F4E08283E091CC
:100920000924F0910A243097A1F1A0E0B4E01896D0
:100930008D919C91199760E070E0BA01552744278A
:10094000A0E0B0E08A019B01082B192B2A2B3B2B3E
:10095000C901B801009105241091062420E030E07F
:10096000980111270027C0900724D0900824E12C7B
:10097000F12C0C291D292E293F29061717072807B6
:10098000390730F0C901B8016F5F7F4F8F4F9F4F1C
:100990000995FF91EF91BF91AF919F918F917F91B9
:1009A0006F915F914F913F912F911F910F91FF9008
:1009B000EF90DF90CF900F900FBE0F901F90189583
:1009C000FC01818185FFFDCF608380E090E0089588
:1009D000FC0181818823ECF7808108954F925F921A
:1009E0006F927F928F929F92AF92BF92CF92DF923F
:1009F000EF92FF920F931F93CF93DF93EC014A0185
:100A00005B0128013901D901C801689412F8B69533
:100A1000A795979587951694D1F7B901A801032E4C
:100A200036E176956795579547953A95D1F7302DEC
:100A30002C8122FD08C0B695A79597958795769548
:100A400067955795479588159905AA05BB0508F43C
:100A5000AAC084169506A606B70608F4A6C08C811F
:100A600082FD04C0880C991CAA1CBB1CC301B201E6
:100A7000A50194017AD32F3F31054105510508F4B2
:100A800096C0C12CD12C7601CA9419EF05C02C1543
:100A90003D054E055F0568F0CC0CDD1CEE1CFF1C0F
:100AA0001D3F14F46894C0F81F5F173081F7212FA1
:100AB00052C0212F11230CF04EC0D501C401880F64
:100AC000991FAA1FBB1F880F991FAA1FBB1F880F42
:100AD000991FAA1FBB1F481A590A6A0A7B0A1E3FA0
:100AE000ECF46DEF7FEF611B710917FD739504C086
:100AF000440C551C661C771C6A95D2F7D501C401BD
:100B0000B695A79597958795BC01CD01640D751D88
:100B1000861D971DA501940128D33CC0212F3327A2
:100B200027FD30952D5F3F4FD501C40104C0880FCC
:100B3000991FAA1FBB1F2A95D2F79C01AD01B6953C
:100B4000A79597958795BC01CD01640D751D861DF0
:100B5000971D0BD31FC0332727FD30952D5F3F4FC7
:100B6000D501C40104C0880F991FAA1FBB1F2A9575
:100B7000D2F79C01AD01B695A79597958795BC01D5
:100B8000CD01640D751D861D971DEFD221503109D1
:100B900041095109832F8F701295107F182B1F83E5
:100BA0002E8381E018C080E016C080E014C0D5011B
:100BB000C401880F991FAA1FBB1F880F991FAA1F66
:100BC000BB1F880F991FAA1FBB1F481A590A6A0A20
:100BD0007B0A19EF86CFDF91CF911F910F91FF9084
:100BE000EF90DF90CF90BF90AF909F908F907F90CD
:100BF0006F905F904F9008950F931F93CF93DF9363
:100C0000EC018B01009709F4D6C0803C910529F4D2
:100C100060E180E090E061DCCEC0C11584E0D807DF
:100C200029F464E080E090E058DCC5C0C038E1E021
:100C3000DE0729F462E080E090E04FDCBCC0C11523
:100C4000F1E0DF0729F461E080E090E046DCB3C02A
:100C5000C03883E0D80729F461E081E090E03DDC12
:100C6000AAC0C115E2E0DE0729F462E081E090E06D
:100C700034DCA1C0C032F3E0DF0729F464E082E095
:100C800090E02BDC98C0C11588E0D80729F461E01A
:100C900083E090E022DC8FC0C115E9E0DE0729F493
:100CA00061E084E090E019DC86C0C115FAE0DF075E
:100CB00029F461E085E090E010DC7DC0C03488E07C
:100CC000D80729F462E083E090E007DC74C0C03408
:100CD000E9E0DE0729F462E084E090E0FEDB6BC02F
:100CE000C039F8E0DF0729F464E083E090E0F5DB49
:100CF00062C0C03989E0D80729F464E084E090E05C
:100D0000ECDB59C0C039EAE0DE0729F464E085E095
:100D100090E0E3DB50C0C03CF8E0DF0729F468E076
:100D200083E090E0DADB47C0C03C89E0D80729F4D3
:100D300068E084E090E0D1DB3EC0C03AE8E0DE0746
:100D400029F460E183E090E0C8DB35C0C03AF9E007
:100D5000DF0729F460E184E090E0BFDB2CC0C03AFB
:100D60008AE0D80729F460E185E090E0B6DB23C093
:100D7000C03BE8E0DE0729F460E283E090E0ADDB11
:100D80001AC0C03BF9E0DF0729F460E284E090E09C
:100D9000A4DB11C0C03884E0D80729F460E483E004
:100DA00090E09BDB08C0C03AE4E0DE0721F460E499
:100DB00085E090E092DB8D818F738D83F8019681C1
:100DC0008481892B9085992311F098E001C090E0EF
:100DD000892B8D83F801408151816281738100E00C
:100DE00018E428EE31E0CE01F9DD9C8198609C8307
:100DF0009C8190619C83DF91CF911F910F91089509
:100E000087E0E0EAF0E082833DDB87D0789445E339
:100E100050E06AEE70E28AE090E081DA811164C00D
:100E200045E350E06FEF70E08AEE90E2C9D1609147
:100E3000C8207091C920E62FF72FDF010D90002008
:100E4000E9F71197AE1BBF0B2AEE30E24A2F5B2F5A
:100E5000822F932FACD188EE93E08093FA20909369
:100E6000FB2045E350E06AEE70E28AE090E026DA8B
:100E70003BC0AC9EB001AD9E700D11246D547D4DF4
:100E800044E650E0C8014BDA811112C0F601D701E7
:100E90008B2D01900D928A95E1F7BC9EB001BD9E0D
:100EA000700D11246050704E44E650E0C80106DA1F
:100EB000219606531F4F84E6C80ED11C85EAE80E22
:100EC000F11CC230D105A9F688E0E0E4F6E08583A4
:100ED00004EC11E020E130E040E150E06AE070E035
:100EE00080E090E056DAFFCF0F2EF0E0CF2EF0E258
:100EF000DF2EF02D0F2EF3EBEF2EF2E2FF2EF02D72
:100F00000FE310E0C0E0D0E00F2EF5EAAF2EF02D99
:100F10000F2EF4E6BF2EF02DACCF43E050E068E09A
:100F200080E496E0F1DA41E050E062E080E496E0AF
:100F3000EBDA40E058E161E080E096E0E5DA40E09D
:100F400058E162E080E096E0DFDA40E058E164E0FA
:100F500080E096E0D9DA40E058E168E080E096E091
:100F6000D3DA41E050E060E180E496E0CDDA41E0A0
:100F700050E060E280E496E0C7DA41E050E060E8EB
:100F800080E496E0C1DA40E050E060E480E496E07E
:100F9000BBDA40E050E064E080E696E0B5DA43E09A
:100FA00050E060E880E696E0AFDA40E050E060E4D0
:100FB00080E696E0A9DA80E1E0E4F6E0868382E06C
:100FC000E0E2F6E086836AEC70E280EB99E014DE02
:100FD000E0EBF9E083818063838383818C6083838A
:100FE00040E863E075E283E895E282DA40E867E290
:100FF00074E28DEF94E27CDA40E567EA74E287EF11
:1010000094E276DA34DC8EEF9FEFE0E0F4E0828762
:10101000938781E292E026DCE2DB0CCC1F920F92F8
:101020000FB60F9211242F933F934F935F936F93BB
:101030007F938F939F93AF93BF93EF93FF9380EB37
:1010400099E0C6DC309186252091852590918825F0
:10105000321B392320918725321789F0E6E8F5E223
:10106000208196959223A0918325B0918425A90F84
:10107000B11D8C932F5F8091882528232083FF91B9
:10108000EF91BF91AF919F918F917F916F915F9100
:101090004F913F912F910F900FBE0F901F90189579
:1010A0001F920F920FB60F9211242F933F934F93DD
:1010B0005F936F937F938F939F93AF93BF93EF93C0
:1010C000FF93909100258091FF249817E1F0909173
:1010D00000258091FF24981791F0EFEFF4E29081C2
:1010E00080910225282F26952923A091FD24B091D7
:1010F000FE24A20FB11D6C919F5F8923808380EB3A
:1011000099E05EDC21C09091FA248091F92498172F
:10111000D9F09091FA248091F924981791F0E9EF91
:10112000F4E290818091FC24282F26952923A09118
:10113000F724B091F824A20FB11D6C919F5F892311
:10114000808380EB99E03CDCFF91EF91BF91AF9100
:101150009F918F917F916F915F914F913F912F91CF
:101160000F900FBE0F901F901895A1E21A2EAA1B88
:10117000BB1BFD010DC0AA1FBB1FEE1FFF1FA21747
:10118000B307E407F50720F0A21BB30BE40BF50B44
:10119000661F771F881F991F1A9469F760957095CD
:1011A000809590959B01AC01BD01CF010895FB0195
:1011B000DC0102C001900D9241505040D8F70895D3
:1011C000DC0101C06D9341505040E0F70895F89460
:1011D000FFCF1C1D1D4020A12120222723522410B7
:1011E000251B2A452C192D042E2B30AC320033023E
:1011F0003404352236B5376B380039003A003B00ED
:101200003C003D003E013F0040004100420043FFE2
:1012100044FF45FF46FF6E136FA9702A712A723092
:101220007553765F7740000000000000000000006A
:101230000000000000001C1B1D4020A121202227CF
:101240002352241025202A372C192D042E2B30ACA4
:10125000320033023404352236B5376B380039009A
:101260003A003B003C003D003E013F004000410091
:10127000420043FF44FF45FF46FF6E136FA9702AEB
:10128000712A72287553767D7700000000000000F7
:1012900000000000000000000000D32080250000B6
:1012A0000300000000456E6372797074696F6E20F0
:1012B0004B65792030008E839F8388858F5F888778
:1012C0008885803168F380EC90E021E0FC01218387
:1012D00081E0898306C080EC90E020E8FC01218356
:1012E000198289812C96CDBFDEBFDF91CF91089501
:1012F0000F931F93CF93DF93CDB7DEB76A97CDBF20
:10130000DEBF898B9A8B6B8B7C8B4D8B5E8B2F8B8F
:10131000388F098F1A8F81E089838F89988D8A830E
:101320009B831C8210C080EC90E02A813B81F901F4
:101330002081FC0122838A819B8101968A839B8381
:101340008C818F5F8C838C81803168F380EC90E09E
:1013500020EC30E0F90120812B7A2464FC01208309
:1013600089899A898D839E838B899C898F839887AD
:10137000898D898760C08D899E898A879B871C8615
:1013800010C080EC90E02A853B85F9012081FC01AA
:1013900023838A859B8501968A879B878C858F5FAF
:1013A0008C878C85803168F31D8610C080EC90E0BE
:1013B0002D813E81F9012081FC0122838D819E8156
:1013C00001968D839E838D858F5F8D878D8580317E
:1013D00068F380EC90E0FC018181882F90E08178B7
:1013E00099270097B1F380EC90E0FC01818188237C
:1013F000F4F08F8198858E879F87188A10C080ECC3
:1014000090E0FC0122818E859F85FC0120838E85E2
:101410009F8501968E879F8788898F5F888B8889B3
:10142000803168F38E859F858F83988701C01982EC
:101430008985815089878985882309F09CCF80EC34
:1014400090E020EC30E0F90120812B7BFC0120832F
:1014500089816A96CDBFDEBFDF91CF911F910F9139
:1014600008950F931F93CF93DF93CDB7DEB76F9798
:10147000CDBFDEBF8E8B9F8B688F798F4A8F5B8F3E
:101480002C8F3D8F0E8F1F8F81E08983888D998DE2
:101490008A839B838E899F898C839D838E8D8E8387
:1014A000B7C08A8D9B8D8F839887198610C080EC7A
:1014B00090E02F813885F9012081FC0123838F8101
:1014C000988501968F83988789858F5F898789851D
:1014D000803168F38C819D818A879B871C8610C030
:1014E00080EC90E02A853B85F9012081FC01228374
:1014F0008A859B8501968A879B878C858F5F8C87E1
:101500008C85803168F38A859B858C839D8380ECF4
:1015100090E020EC30E0F90120812469FC01208377
:1015200080EC90E0FC018181882F90E08178992700
:101530000097B1F380EC90E0FC01818188230CF4EA
:1015400063C08E81282F30E08E8D9F8D281739073C
:10155000D1F48C8D9D8D8D879E871F8610C080EC69
:1015600090E02D853E85F9012081FC0122838D8547
:101570009E8501968D879E878F858F5F8F878F854C
:10158000803168F31AC08C819D818097888B998BFC
:101590001A8A10C080EC90E028893989F9012081ED
:1015A000FC012283888999890196888B998B8A8985
:1015B0008F5F8A8B8A89803168F380EC90E020EC21
:1015C00030E0F90120812B7FFC0120838A819B81FF
:1015D0008B8B9C8B1D8A10C080EC90E0FC012281DB
:1015E0008B899C89FC0120838B899C8901968B8B3C
:1015F0009C8B8D898F5F8D8B8D89803168F38B8972
:101600009C898A839B8301C019828E8181508E833D
:101610008E81882309F045CF89816F96CDBFDEBFCB
:10162000DF91CF911F910F910895CF93DF93CDB7A5
:10163000DEB72897CDBFDEBF8887888589838981FB
:101640008A838A818B838B818695869586958C8308
:101650008C81882F90E0880F991F82959295907FBA
:101660009827807F98279A5F8D839E8389818F83B7
:101670008F81882F90E09C012770332781E090E0D4
:1016800002C0880F991F2A95E2F7282F8D819E812D
:10169000FC0127832896CDBFDEBFDF91CF9108954F
:1016A000CF93DF93CDB7DEB72F97CDBFDEBF8C874B
:1016B0006D877E874F878D859E858D839E831F8254
:1016C0008D819E81009709F4A1C040E150E060E067
:1016D00070E085E791E20E94A4358D819E81FC0136
:1016E0008181882F90E002979C018D819E810296D6
:1016F00045E751E2B9010E94A0128D819E81FC0153
:101700008181882F90E002979C018D819E810296B5
:10171000A90165E771E20E949B358D819E81FC01E4
:1017200022858D819E81FC0121838D819E81FC011A
:101730008285282F30E08D819E8140E0B9010E9492
:10174000E91BDC01CB0188879987AA87BB8748857D
:101750008D819E81FC018285882F90E00B972D81E1
:101760003E81820F931F0B96FC018081481709F080
:101770004FC000008D819E812C85FC0120838091CB
:10178000FC220E94150B19821A828D819E818B8307
:101790009C8313C08B819C81FC018081682F80EB2E
:1017A00099E00E942D2789819A81019689839A83E5
:1017B0008B819C8101968B839C838D819E81FC0112
:1017C0008181282F30E089819A818217930714F351
:1017D00000008F818823E9F080912C2190912D21A8
:1017E000019680932C2190932D2182E080936A268C
:1017F00080912C2190912D21809332269093332635
:10180000F89481E080931A26789403C0000001C008
:1018100000002F96CDBFDEBFDF91CF910895CF920C
:10182000EF92FF920F931F93CF93DF93CDB7DEB765
:10183000CC54D109CDBFDEBFFE01ED5BFF4F8083ED
:10184000CE018C5B9F4FFC016083CE018B5B9F4F71
:10185000FC014083CE018A5B9F4FFC0120833183D2
:10186000CE01885B9F4FFC0100831183CE01865B14
:101870009F4FFC01E082F182CE01845B9F4FFC010F
:10188000C0821982CE01845B9F4FFC018081855FFD
:101890008F83CE018C5B9F4FFC0180818C87809170
:1018A0002E2190912F218E879F87019780932E2143
:1018B00090932F21CE018B5B9F4FFC0180818D8700
:1018C0008091DD229091DE22A091DF22B091E02272
:1018D00088879987CE01885B9F4FFC018081918129
:1018E0008A879B871E82CE0106960B9642E350E0C4
:1018F00060E070E00E94A435CE01845B9F4FFC0144
:101900008081482F50E0CE01865B9F4FFC012081F3
:101910003181CE0106960B96B9010E949B358F81CD
:10192000888B8F81282F30E0CE01069640E0B901E8
:101930000E94E91BDC01CB018A839B83AC83BD83BE
:10194000CE01845B9F4FFC018081882F90E09E0137
:101950002A5F3F4F0B96820F931F2A813B81FC0128
:10196000208331838F818E5F8F838F81882F90E0DA
:101970009C012250310980E190E0B9010E947B3442
:10198000898340E150E060E070E085E891E20E94E8
:10199000A4358F81882F90E09C01225031098981E4
:1019A000882F90E0820F931F9C01CE01069602962D
:1019B00045E851E2B9010E944E128F81882F90E0D4
:1019C0009C01225031098981882F90E0820F931F5A
:1019D0009C01CE0106960296A90165E871E20E947B
:1019E0009B359F818981890F8F834F819E012A5F5B
:1019F0003F4FCE018D5B9F4FB901FC0180810E945A
:101A00000934C45BDF4FCDBFDEBFDF91CF911F91A3
:101A10000F91FF90EF90CF900895CF93DF9300D078
:101A2000CDB7DEB789839A8389819A81009721F0A7
:101A30008130910599F024C044E650E060E070E008
:101A400089EF91E20E94A43584E5E0E0F0E2A9EF9D
:101A5000B1E201900D928A95E1F712C044E650E0A0
:101A600060E070E085E991E20E94A43584E5E4E558
:101A7000F0E2A5E9B1E201900D928A95E1F700004C
:101A80000F900F90DF91CF910895CF93DF9300D007
:101A900000D0CDB7DEB78B839C838B819C81009770
:101AA00019F480E090E002C086E690E089839A8392
:101AB0008B819C81009721F081309105F9F03DC028
:101AC00089819A818C599F4F44E650E069EF71E219
:101AD0000E94BF13982F81E08927882359F18B81B9
:101AE0009C810E940D0D89819A818C599F4F44E6FB
:101AF00050E069EF71E20E948D131CC089819A81C8
:101B00008C599F4F44E650E065E971E20E94BF1393
:101B1000982F81E08927882379F08B819C810E940E
:101B20000D0D44E650E065E971E284E690E00E9424
:101B30008D1302C0000001C000002496CDBFDEBF9F
:101B4000DF91CF910895CF93DF9300D000D0CDB730
:101B5000DEB78B839C838B819C81009719F480E096
:101B600090E002C086E690E089839A838B819C8115
:101B7000009721F08130910561F016C089819A812A
:101B80008C599F4F44E650E069EF71E20E948D133B
:101B90000BC089819A818C599F4F44E650E065E9DA
:101BA00071E20E948D1300002496CDBFDEBFDF914D
:101BB000CF910895CF93DF93CDB7DEB72797CDBFF1
:101BC000DEBF8D836E837F838D8189838981882F9A
:101BD00090E09C012770332781E090E002C0880FDD
:101BE000991F2A95E2F7682F8D818A838A818B83DA
:101BF0008B818695869586958C838C81882F90E045
:101C0000880F991F82959295907F9827807F9827BB
:101C10009A5F2E813F81A9010E947F182796CDBF30
:101C2000DEBFDF91CF910895CF93DF93CDB7DEB7BD
:101C30002A97CDBFDEBF8A878A8589831A828981E8
:101C40008B838B818C838C818695869586958D83FD
:101C50008D81882F90E0880F991F82959295907FB3
:101C60009827807F98279A5F8E839F838A81882315
:101C7000A9F0898188878885882F90E09C0127704A
:101C8000332781E090E002C0880F991F2A95E2F780
:101C9000282F8E819F81FC01258314C0898189872B
:101CA0008985882F90E09C012770332781E090E0A0
:101CB00002C0880F991F2A95E2F7282F8E819F81F5
:101CC000FC0126832A96CDBFDEBFDF91CF91089518
:101CD000CF93DF93CDB7DEB72A97CDBFDEBF8A871C
:101CE0008A85898381E08A8389818B838B818C8338
:101CF0008C818695869586958D838D81882F90E041
:101D0000880F991F82959295907F9827807F9827BA
:101D10009A5F8E839F838A818823A9F0898188872F
:101D20008885882F90E09C012770332781E090E020
:101D300002C0880F991F2A95E2F7282F8E819F8174
:101D4000FC01258314C0898189878985882F90E0CB
:101D50009C012770332781E090E002C0880F991F13
:101D60002A95E2F7282F8E819F81FC0126832A96EF
:101D7000CDBFDEBFDF91CF910895CF93DF93CDB775
:101D8000DEB72897CDBFDEBF8887888589838981A4
:101D90008A838A818B838B818695869586958C83B1
:101DA0008C81882F90E0880F991F82959295907F63
:101DB0009827807F98279A5F8D839E838D819E814F
:101DC000FC01408589818F838F81882F90E09C0161
:101DD0002770332781E090E0022E02C0880F991F00
:101DE0000A94E2F7942F982381E0992309F480E084
:101DF000882F90E021E0009709F420E081E082271D
:101E0000882F90E081702896CDBFDEBFDF91CF9103
:101E10000895CF93DF93CDB7DEB72897CDBFDEBF50
:101E200088878885898389818A838A818B838B814E
:101E30008695869586958C838C81882F90E0880F77
:101E4000991F82959295907F9827807F98279A5F17
:101E50008D839E8389818F838F81882F90E09C0161
:101E60002770332781E090E002C0880F991F2A95E0
:101E7000E2F7282F8D819E81FC0127832896CDBF14
:101E8000DEBFDF91CF910895CF93DF93CDB7DEB75B
:101E900081E18093FC228091FC2261E070E00E944D
:101EA000DA0D80E18093FD228091FD2261E070E0F7
:101EB0000E94DA0D80E18093FE228091FE2261E093
:101EC00070E00E94DA0D80E18093FF228091FF2272
:101ED00061E070E00E94DA0D81E080930023809140
:101EE000002360E078E10E94DA0D82E08093012314
:101EF0008091012360E078E10E94DA0D83E0809315
:101F000002238091022360E078E10E94DA0D82E1F1
:101F1000809303238091032360E078E10E94DA0D2F
:101F200083E18093FB228091FB2263E070E00E94BA
:101F3000DA0D61E070E084E10E94DA0D61E070E0AA
:101F400085E10E94DA0D61E070E087E10E94DA0D20
:101F500060E070E086E10E94DA0D60E070E08AE106
:101F60000E94DA0D63E070E08FE10E94DA0D60E01C
:101F700070E08EE10E94DA0D0E9483114CE350E084
:101F800060E070E086E193E20E94A435DF91CF919A
:101F900008951F920F9200903F000F9211248F938B
:101FA0009F93EF93FF93CF93DF93CDB7DEB780E09E
:101FB00096E0FC0190858091152389238093152359
:101FC000DF91CF91FF91EF919F918F910F900092B0
:101FD0003F000F901F9018951F920F9200903F00A6
:101FE0000F9211248F939F93EF93FF93CF93DF93DF
:101FF000CDB7DEB780E096E0FC0190858091152397
:10200000892380931523DF91CF91FF91EF919F91C9
:102010008F910F9000923F000F901F9018951F9284
:102020000F9200903F000F9211248F939F93EF9394
:10203000FF93CF93DF93CDB7DEB780E496E0FC014A
:10204000908580911423892380931423DF91CF916D
:10205000FF91EF919F918F910F9000923F000F9011
:102060001F901895CF93DF93CDB7DEB72E97CDBFD6
:10207000DEBF8D879E8781E08D8382E08E8384E042
:102080008F8388E08887198285E0898786E08A8740
:1020900087E08B8788E08C871A821B821C82D3C0E2
:1020A0008C81882F90E09E01275F3F4F820F931F06
:1020B000FC018081882F90E085509D4DFC0180813E
:1020C0000E94BD0E882381F08C81282F30E081E0B2
:1020D00090E002C0880F991F2A95E2F72A813B8180
:1020E000822B932B8A839B838C81282F30E081E085
:1020F00090E002C0880F991F2A95E2F79C018A811F
:102100009B8182239323009749F18C81282F30E013
:1021100081E090E002C0880F991F2A95E2F79C01A8
:102120008091D8209091D920822393230097B1F4F5
:102130008C81282F30E08D859E85FC0180819181E6
:10214000A281B381220F331F220F331F26523F4D2E
:10215000F90180839183A283B38372C08C81282F7D
:1021600030E081E090E002C0880F991F2A95E2F7E5
:102170009C018A819B8182239323009779F58C812E
:10218000282F30E081E090E002C0880F991F2A9547
:10219000E2F79C018091D8209091D920822393234B
:1021A0000097E1F08C81882F90E09E012B5F3F4FDC
:1021B000820F931FFC0180819981892B89838C81F7
:1021C000882F90E0880F991F880F991F86529F4D86
:1021D000FC01108211821282138232C08C81282F5E
:1021E00030E081E090E002C0880F991F2A95E2F765
:1021F0009C018A819B8182239323009709F58C811E
:10220000282F30E081E090E002C0880F991F2A95C6
:10221000E2F79C018091D8209091D92082239323CA
:10222000009771F48C81882F90E0880F991F880F98
:10223000991F86529F4DFC011082118212821382D7
:102240008C818F5F8C838C81843008F429CF8A81C4
:102250009B818093D8209093D92089812E96CDBFE1
:10226000DEBFDF91CF910895CF93DF9300D000D0F0
:10227000CDB7DEB78B839C8319828B819C810E94B2
:1022800032108A838A81882369F10000898188233A
:10229000C9F080912C2190912D21019680932C21C1
:1022A00090932D2182E080936A2680912C21909139
:1022B0002D218093322690933326F89481E08093E9
:1022C0001A2678948091282190912921A0912A2181
:1022D000B0912B218093EA209093EB20A093EC20E7
:1022E000B093ED208A812496CDBFDEBFDF91CF91E0
:1022F0000895CF93DF93CDB7DEB784E10E94140E2B
:10230000DF91CF910895CF93DF93CDB7DEB784E10E
:102310000E94680EDF91CF910895CF93DF93CDB7E0
:10232000DEB78AE10E94BD0EDF91CF9108950F9331
:102330001F93CF93DF93CDB7DEB72A97CDBFDEBF14
:1023400089839A836B837C834D835E832F83388755
:1023500009871A8729813A81C901880F991F820F3D
:10236000931F880F991F880F991F895E9C4D2B81A1
:102370003C81FC012083318329813A81C901880F86
:10238000991F820F931F880F991F880F991F845ED2
:102390009C4D2D813E81FC012083318329813A812E
:1023A000C901880F991F820F931F880F991F880FEB
:1023B000991F825E9C4D2F813885FC0120833183DB
:1023C00029813A81C901880F991F820F931F880FB5
:1023D000991F880F991F805E9C4D29853A85FC01C5
:1023E0002083318329813A81C901880F991F820F87
:1023F000931F880F991F880F991F865E9C4D2D8112
:102400003E81FC012083318329813A81C901880FF3
:10241000991F820F931F880F991F880F991F875E3E
:102420009C4D21E0FC012083789429813A81C901E7
:10243000880F991F820F931F880F991F880F991F6C
:102440008A5E9C4D21E0FC01208378942A96CDBFC2
:10245000DEBFDF91CF911F910F910895CF93DF934E
:10246000CDB7DEB78091FB220E94090FDF91CF919B
:102470000895CF93DF93CDB7DEB740E060E080E012
:102480000E94B51980E1E1EEF2E2A8EAB0E2019023
:102490000D928A95E1F7DF91CF9108950F931F93E5
:1024A000CF93DF93CDB7DEB72897CDBFDEBF8B8349
:1024B0009C836D837E834F835887198240E850E068
:1024C00060E070E086E693E20E94A4352D813E81B3
:1024D0008B819C81A901BC0186E693E20E949B3519
:1024E00080EC90E020E2FC0120838D819E8192951A
:1024F00082958F7089279F7089278F5F8A838A8151
:10250000882F90E08C0128EB30E248EA50E266EE3A
:1025100073E286E693E20E94780989832D813E81E9
:102520008F819885A90166EE73E20E949B358981AF
:102530002896CDBFDEBFDF91CF911F910F910895F7
:102540000F931F93CF93DF93CDB7DEB72897CDBFFF
:10255000DEBF8B839C836D837E834F835887198274
:1025600040E850E060E070E086EE93E20E94A4351F
:102570002D813E818B819C81A901BC0186EE93E275
:102580000E949B3580EC90E020E2FC01208366E510
:1025900073E288EA90E20E94FB088D819E81929509
:1025A00082958F7089279F7089278F5F8A838A81A0
:1025B000882F90E08C0128EB30E246E553E266E696
:1025C00073E286EE93E20E94310A89832D813E8177
:1025D0008F819885A90166E673E20E949B35898107
:1025E0002896CDBFDEBFDF91CF911F910F91089547
:1025F000CF93DF9300D000D0CDB7DEB789839A8325
:102600006B837C8389819A810E94801C282F8B8117
:102610009C81FC0120832496CDBFDEBFDF91CF914A
:102620000895CF93DF9300D01F92CDB7DEB7898393
:102630009A836B8389819A816B810E94BF1C239648
:10264000CDBFDEBFDF91CF910895CF93DF93CDB79C
:10265000DEB72697CDBFDEBF89839A836B837C83E9
:102660004D835E83A8954D815E812B813C8189815C
:102670009A81B9010E949B1C2696CDBFDEBFDF91D7
:10268000CF910895CF93DF93CDB7DEB72997CDBF14
:10269000DEBF8C839D836E837F8348875987198231
:1026A0001A822EC0A8952C813D8189819A81820F42
:1026B000931F9E012D5F3F4FB9010E94F8122E819A
:1026C0003F8189819A81820F931FFC0190818B81C8
:1026D000981789F02E813F8189819A81820F931FFB
:1026E000FC0140812C813D8189819A81820F931F59
:1026F000642F0E94111389819A81019689839A839C
:1027000029813A81888599852817390758F22996B1
:10271000CDBFDEBFDF91CF910895CF93DF93CDB7CB
:10272000DEB72797CDBFDEBF8A839B836C837D8313
:102730004E835F832E818C819D81422F60E00E94B9
:10274000F91389834E815F812C813D818A819B8130
:10275000B9010E9442132A813B818E819F81820FA1
:10276000931F41E050E09E012F5F3F4FB9010E944F
:1027700042132796CDBFDEBFDF91CF910895CF934F
:10278000DF93CDB7DEB72797CDBFDEBF8A839B83AC
:102790006C837D834E835F831982A8954E815F8110
:1027A0002C813D818A819B81B9010E9425132A8158
:1027B0003B818E819F81820F931F41E050E09E01FB
:1027C0002F5F3F4FB9010E9425132E818C819D817F
:1027D000422F60E00E94F913982F8981981711F415
:1027E00081E001C080E02796CDBFDEBFDF91CF91B1
:1027F0000895CF93DF93CDB7DEB72697CDBFDEBF69
:102800008B839C836D834E8319821A8214C08D81C1
:10281000282F30E08A81882F90E0820F931F2B8130
:102820003C81820F931FFC0180819981890F8983EC
:102830008A818F5F8A839A818E81981740F389817C
:102840002696CDBFDEBFDF91CF910895CF93DF9362
:1028500000D0CDB7DEB789839A8389819A81FC0144
:10286000238189819A81FC018281F22FF81B8F2FAD
:10287000282F89819A81FC01858182230F900F90F6
:10288000DF91CF910895CF93DF9300D0CDB7DEB71E
:1028900089839A8389819A81FC01238189819A8124
:1028A000FC01928181E0291709F080E00F900F90E0
:1028B000DF91CF910895CF93DF9300D0CDB7DEB7EE
:1028C00089839A8389819A810E942614282F89817D
:1028D0009A81FC01948181E0291709F080E00F9032
:1028E0000F90DF91CF910895CF93DF93CDB7DEB7EF
:1028F0002797CDBFDEBF8A839B834C835D836E8326
:102900007F838A819B810E945B14882319F081E078
:1029100090E029C08A819B81FC01838189838A811F
:102920009B81FC01208131818A819B81FC01858111
:10293000982F969589818923882F90E0820F931F85
:102940002C81FC01208389818F5F282F8A819B81C4
:10295000FC018581822389838A819B812981FC01F5
:10296000238380E090E02796CDBFDEBFDF91CF913B
:102970000895CF93DF93CDB7DEB72597CDBFDEBFE8
:102980008A839B836C837D838A819B810E9443140D
:10299000882319F082E090E02CC08A819B81FC01A1
:1029A000828189838A819B81FC01208131818A8196
:1029B0009B81FC018581982F969589818923882F99
:1029C00090E0820F931FFC0120818C819D81FC018E
:1029D000208389818F5F282F8A819B81FC018581DB
:1029E000822389838A819B812981FC01228380E063
:1029F00090E02596CDBFDEBFDF91CF910895CF93B4
:102A0000DF93CDB7DEB761E089E790E00E94031A5B
:102A1000FFCFCF93DF93CDB7DEB78CE195E1809305
:102A20006B2690936C268EEE96E180936D269093A4
:102A30006E26DF91CF910895EF920F931F93CF935E
:102A4000DF93CDB7DEB76297CDBFDEBF898B9A8BA0
:102A5000198289899A8927E0FC01DE011796019085
:102A60000D922A95E1F787E08A838A85882F90E086
:102A70008430910509F44DC08530910554F48230BD
:102A8000910501F18330910594F58130910571F044
:102A900046C18830910509F4E0C08930910509F4F8
:102AA00026C18530910509F461C039C12B853A856D
:102AB0009C858885E12C00E010E0432F692F0E945F
:102AC0004F3031C181E08E8781E08F87188A2B8556
:102AD0004A855C853885CE010E960F2EF3E0EF2EE9
:102AE000F02D8C01652F832F0E944F301CC18B85E8
:102AF000882309F015C12B853A859C858885E12CB2
:102B000000E010E0432F692F0E944F300E94FF1415
:102B100007C18B858130D9F48D858E31C1F48D85C7
:102B2000282F30E08A81882F90E049895A89840FC4
:102B3000951FA901BC018DED92E20E949B354EE1EB
:102B400050E06DED72E28AE090E00E948D132B85DB
:102B50003A859C8588850F2EFEE1EF2EF02D0DED38
:102B600012E2432F692F0E944F30DDC08B85882FE2
:102B700090E0837099278B839C838B8588230CF04E
:102B80003FC08B819C810097C9F444E650E060E02F
:102B900070E089EF91E20E94A4358D85282F30E006
:102BA0008A81882F90E049895A89840F951FA9014D
:102BB000BC0189EF91E20E949B351DC08B819C81F5
:102BC00081309105C1F444E650E060E070E085E9B1
:102BD00091E20E94A4358D85282F30E08A81882FCC
:102BE00090E049895A89840F951FA901BC0185E9A4
:102BF00091E20E949B358B819C810E94A30D0BC0AA
:102C00008B85882344F08B819C810E940D0D8B81E4
:102C10009C810E94A30D8B819C81009779F42B8568
:102C20003A859C8588850F2EF4E6EF2EF02D09EF6E
:102C300011E2432F692F0E944F3075C02B853A85D2
:102C40009C8588850F2EF4E6EF2EF02D05E911E224
:102C5000432F692F0E944F3066C0CE01079604961D
:102C60008D839E838D85813009F05CC08A81882F99
:102C700090E029893A89820F931FFC018081282FD7
:102C800030E08D819E81FC0180819181A90168E6FF
:102C900074E20E94BF13982F81E08927882341F0B6
:102CA00040E250E06FEF70E086E694E20E94A435C7
:102CB00086E694E22D813E81F90120813181FC017B
:102CC000208331838A81882F90E029893A89820F75
:102CD000931FFC018081982F9E5F8985E92E06E66F
:102CE00014E220E04AE060E00E944F301BC0CE01B9
:102CF000079604968D839E838D85482F50E08A81A8
:102D0000882F90E029893A89280F391F8D819E816B
:102D1000FC0180819181B9010E948D1304C003C020
:102D2000000001C0000089818823C9F080912C2116
:102D300090912D21019680932C2190932D2182E05A
:102D400080936A2680912C2190912D2180933226A8
:102D500090933326F89481E080931A2678946296B3
:102D6000CDBFDEBFDF91CF911F910F91EF900895FE
:102D7000CF93DF931F92CDB7DEB785E795E20E9430
:102D80004314982F81E08927882371F0CE010196A2
:102D9000BC0185E795E20E94B9148981682F80EB18
:102DA00099E00E942D2716C08FE695E20E944314F9
:102DB000982F81E08927882369F0CE010196BC0114
:102DC0008FE695E20E94B9148981682F80EB99E023
:102DD0000E942D270F90DF91CF910895CF93DF931D
:102DE00000D000D0CDB7DEB78A839B836C83198275
:102DF0001AC08981882F90E02A813B81820F931F1E
:102E0000FC018081882F90E0A0E0B0E0AC01BD0122
:102E100085E795E20E947414009711F080E00AC0E3
:102E200089818F5F898399818C81981710F30E9423
:102E3000B81681E02496CDBFDEBFDF91CF91089513
:102E4000CF93DF931F92CDB7DEB78FE390E0FC0105
:102E500080818983F89489810F90DF91CF910895C3
:102E6000CF93DF931F92CDB7DEB789838FE390E0D6
:102E70002981FC0120830F90DF91CF910895CF939A
:102E8000DF9300D0CDB7DEB78A830E9420178983F5
:102E900080E590E020E530E0F90130812A81232BA4
:102EA000FC01208389810E9430170F900F90DF91E1
:102EB000CF910895CF93DF931F92CDB7DEB789836B
:102EC0000F90DF91CF910895CF93DF9300D0CDB7CE
:102ED000DEB78A830E942017898380E590E020E591
:102EE00030E0F9012081322F2A8120952323FC0133
:102EF000208389810E9430170F900F90DF91CF912E
:102F00000895CF93DF931F92CDB7DEB78983898170
:102F1000883021F089810E943F1703C089810E9477
:102F20005A170F90DF91CF910895CF93DF931F929F
:102F3000CDB7DEB7898380E590E0FC01918189817E
:102F4000982381E0992309F480E00F90DF91CF91DD
:102F50000895CF93DF931F92CDB7DEB7898300002A
:102F600089810E949517982F81E089278823C1F7CE
:102F70000F90DF91CF910895CF93DF931F92CDB73C
:102F8000DEB789838981882F90E08A309105C1F06E
:102F90008B3091053CF48230910591F0843091059D
:102FA00041F015C08C30910521F08E30910541F033
:102FB0000EC084E00E94811784E00E94A91707C018
:102FC00088E00E94811788E00E94A917000080E431
:102FD00090E029812160FC0123830F90DF91CF9144
:102FE0000895CF93DF9300D000D0CDB7DEB780E750
:102FF00090E089839A831C821B820DC089819A810B
:103000002FEFFC01208389819A81019689839A831D
:103010008B818F5F8B838B81873080F382E00E946E
:10302000811782E00E94A917000061E080E490E02F
:103030000E94031A8C81882319F481E00E9464178E
:1030400080E00E94BC172496CDBFDEBFDF91CF91F8
:103050000895CF93DF9300D01F92CDB7DEB78A8358
:103060006B830E94201789838A81882F90E0805982
:103070009F4F2A81222F30E020593F4FF9012081B4
:10308000322F2B8120952323FC01208389810E94EC
:1030900030172396CDBFDEBFDF91CF910895CF9338
:1030A000DF93CDB7DEB72597CDBFDEBF89839A8387
:1030B0006B837C834D8389819A81FC011282898193
:1030C0009A81FC01138289819A812D81FC012483DC
:1030D0008D81880F282F215089819A81FC012583B9
:1030E00089819A812B813C81FC012083318380E09E
:1030F00090E02596CDBFDEBFDF91CF910895CF93AD
:10310000DF93CDB7DEB72697CDBFDEBF8A839B8323
:103110006C834D835E83198221C08C81882F90E05F
:103120002981222F30E0022E02C0959587950A94BE
:10313000E2F781709927009771F08981882F90E0DC
:1031400040962A813B81820F931F2D813E81232F40
:103150003327FC01208389818F5F898389818830AF
:10316000E0F28D819E81817099270097D1F08D8149
:103170009E8182709927009739F08A819B810596FC
:103180002C81FC01208306C08A819B8106962C81BC
:10319000FC0120838A819B8101962C81FC01208384
:1031A00006C08A819B8102962C81FC012083269691
:1031B000CDBFDEBFDF91CF910895CF93DF9300D0D5
:1031C000CDB7DEB789839A8389819A81FC0180819A
:1031D000282F206189819A81FC0120830F900F9014
:1031E000DF91CF910895CF93DF93CDB7DEB780E025
:1031F00098E4A8EEB1E0BC01CD01DF91CF91089534
:10320000CF93DF931F92CDB7DEB719820E94F318D8
:10321000DC01CB012981222F30E0022E04C0B695BB
:10322000A795979587950A94D2F7BC01CD010F9089
:10323000DF91CF910895CF93DF93CDB7DEB70E9492
:103240000019DC01CB01BC01CD01DF91CF910895C4
:10325000CF93DF93CDB7DEB70E941B19DC01CB0102
:10326000BC01CD01DF91CF910895CF93DF93CDB70E
:10327000DEB70E942819DC01CB01BC01CD01DF9132
:10328000CF910895CF93DF9300D0CDB7DEB7898378
:103290009A8389819A81803C28E0920721F468E032
:1032A00083E00E94291889819A81803C29E0920755
:1032B00021F468E084E00E94291889819A810E94A3
:1032C000DD180F900F90DF91CF910895CF92DF928C
:1032D000EF92FF920F931F93CF93DF93CDB7DEB79B
:1032E0002D97CDBFDEBF89839A836B837C834D830B
:1032F0000E831F8328873987CA86DB86EC86FD8686
:103300000E9435199B01AC018E819F81A885B985EA
:10331000E981FA8189019A01AC01BD01CF010E94C6
:10332000F91E8823ACF089819A81FC018081282FC5
:10333000237F8D81882F90E0880F991F880F991F18
:103340008C70822B282F89819A81FC01208301C0F7
:1033500000002D96CDBFDEBFDF91CF911F910F9161
:10336000FF90EF90DF90CF900895CF93DF9300D040
:103370001F92CDB7DEB789836A834B8380EC90E0E0
:1033800039812A81322B2B81232BFC012083239628
:10339000CDBFDEBFDF91CF9108951F920F920090B5
:1033A0003F000F9211242F933F934F935F936F939E
:1033B0007F938F939F93AF93BF93EF93FF93CF939D
:1033C000DF93CDB7DEB78091EE209091EF2000978C
:1033D00031F08091EE209091EF20FC010995DF9172
:1033E000CF91FF91EF91BF91AF919F918F917F917D
:1033F0006F915F914F913F912F910F9000923F00FD
:103400000F901F9018951BBEFC0128ED24BF608310
:103410000895CF93DF93CDB7DEB781ED90E0FC0147
:103420008081882F90E08170992721E0009709F42E
:1034300020E0822FDF91CF910895CF93DF931F92E9
:10344000CDB7DEB7898383ED90E02981FC0120832D
:103450000F90DF91CF910895CF93DF93CDB7DEB773
:103460002997CDBFDEBF6E837F83888799871D82B2
:1034700019821A821B821C8229C089819A81AB81A0
:10348000BC819C01AD01220F331F441F551F8E814B
:103490009F81A885B98581709927AA27BB27820FAC
:1034A000931FA41FB51F89839A83AB83BC838E812E
:1034B0009F81A885B985B695A795979587958E83A1
:1034C0009F83A887B9878D818F5F8D838D8180329F
:1034D000A0F289819A81AB81BC81BC01CD01299682
:1034E000CDBFDEBFDF91CF910895CF93DF93CDB7EE
:1034F000DEB780ED90E020ED30E0F901208120681A
:10350000FC01208320ED30E08091F0209091F120AB
:10351000A091F220B091F320F901848320ED30E0F6
:103520008091F0209091F120A091F220B091F320B1
:10353000892F9A2FAB2FBB27F901858320ED30E02F
:103540008091F0209091F120A091F220B091F32091
:10355000CD01AA27BB27F901868320ED30E08091B9
:10356000F0209091F120A091F220B091F3208B2FC8
:103570009927AA27BB27F90187831092F020109280
:10358000F1201092F2201092F320DF91CF91089554
:10359000CF93DF9300D0CDB7DEB719821A8284EDC6
:1035A00090E0FC018081882F90E0992789839A839D
:1035B00085ED90E0FC018081882F90E0982F88278E
:1035C00029813A81822B932B89839A8389819A81DD
:1035D0000F900F90DF91CF910895CF93DF9300D09C
:1035E00000D0CDB7DEB784ED90E0FC018081882F5C
:1035F00090E0A0E0B0E09927AA27BB2789839A83AF
:10360000AB83BC8385ED90E0FC018081882F90E046
:10361000A0E0B0E0BA2FA92F982F8827AA27BB27B0
:1036200029813A814B815C81822B932BA42BB52B72
:1036300089839A83AB83BC8386ED90E0FC01808113
:10364000882F90E0A0E0B0E0DC0199278827882748
:103650009927BB2729813A814B815C81822B932B4F
:10366000A42BB52B89839A83AB83BC8387ED90E031
:10367000FC018081882F90E0A0E0B0E0B82FAA275D
:103680009927882729813A814B815C81822B932B52
:10369000A42BB52B89839A83AB83BC8389819A81C0
:1036A000AB81BC81BC01CD010E942C1ADC01CB0195
:1036B00089839A83AB83BC8389819A81AB81BC81E6
:1036C00080959095A095B09589839A83AB83BC83B0
:1036D00089819A81AB81BC81BC01CD012496CDBF8B
:1036E000DEBFDF91CF910895CF93DF93CDB7DEB7E3
:1036F00000000E94091A8823E1F780ED90E0FC01A8
:103700008081882F90E080729927009729F00E948D
:10371000ED1ADC01CB0105C00E94C81ACC01A0E063
:10372000B0E0BC01CD01DF91CF910895CF93DF933D
:103730001F92CDB7DEB7898380ED90E020ED30E0B9
:10374000F9012081207FFC01208380ED90E020EDB5
:1037500030E0F90130812981232BFC0120830F9077
:10376000DF91CF910895CF93DF93CDB7DEB780ED92
:1037700090E020ED30E0F90120812062FC012083FF
:10378000DF91CF910895CF93DF93CDB7DEB780E07F
:103790000E94961BDF91CF910895CF93DF9300D0C5
:1037A00000D0CDB7DEB70E94741BDC01CB0189834A
:1037B0009A83AB83BC830E94C31B89819A81AB81AE
:1037C000BC81BC01CD012496CDBFDEBFDF91CF917E
:1037D0000895CF93DF93CDB7DEB72597CDBFDEBF7A
:1037E00089839A836B837C834D838D810E941D1C0A
:1037F0000BC089819A81FC0180810E941D1A8981F8
:103800009A81019689839A8321E08B819C8100971C
:1038100009F420E08B819C8101978B839C83222378
:1038200041F70E94311CDC01CB01BC01CD01259682
:10383000CDBFDEBFDF91CF910895CF93DF931F926D
:10384000CDB7DEB789830E94751A8981813011F462
:103850000E94B31B81E00E94961B0F90DF91CF91D5
:103860000895CF93DF93CDB7DEB781ED90E021EDE2
:1038700030E0F90120812160FC0120830E94CD1BF2
:10388000DC01CB01BC01CD01DF91CF910895CF9335
:10389000DF93CDB7DEB780EC91E0FC01878588230C
:1038A000D4F3DF91CF910895CF93DF93CDB7DEB7F7
:1038B00061E08BEC91E00E94031ADF91CF910895B3
:1038C000CF93DF93CDB7DEB78CEC91E02CEC31E0F9
:1038D000F90120812860FC012083DF91CF910895B8
:1038E000CF93DF93CDB7DEB78CEC91E02CEC31E0D9
:1038F000F9012081277FFC012083DF91CF9108957A
:10390000CF93DF9300D01F92CDB7DEB78A839B831E
:103910000E94471C0E94601C8A819B81905FFC0171
:10392000808189830E94701C89812396CDBFDEBF70
:10393000DF91CF910895CF93DF93CDB7DEB7269770
:10394000CDBFDEBF89839A836B837C834D835E8387
:103950000E94471C0E94601C89819A81905F9C0193
:103960004D815E818B819C81B9010E949B350E94B3
:10397000701C2696CDBFDEBFDF91CF910895CF9307
:10398000DF9300D000D0CDB7DEB78A839B836C83F2
:1039900080EC91E0FC01828589830E94F81C0E94E2
:1039A000471C8A816C810E94121D80EC91E0FC0111
:1039B000128280EC91E02A813B81232F3327FC0186
:1039C000218380EC91E02A81FC01208380EC91E04E
:1039D00025E3FC0122870E94541C80EC91E02981A0
:1039E000FC0122872496CDBFDEBFDF91CF910895E1
:1039F000CF93DF93CDB7DEB70E94471C80EC91E0F8
:103A0000FC018785882F90E082709927009739F014
:103A100080EC91E026E3FC0122870E94541CDF9198
:103A2000CF910895CF93DF9300D0CDB7DEB78983D0
:103A30006A830E94471C0E94601C8981882F90E045
:103A4000905F2A81FC0120830E94701C0F900F90D0
:103A5000DF91CF910895CF93DF931F92CDB7DEB75B
:103A60008FE390E0FC0180818983F89489810F9035
:103A7000DF91CF910895CF93DF931F92CDB7DEB73B
:103A800089838FE390E02981FC0120830F90DF91EF
:103A9000CF910895CF93DF9300D0CDB7DEB78A835F
:103AA0000E942B1D89838A81882F90E09C012A57D0
:103AB0003B4DF90120812F5F8A579B4DFC012083EC
:103AC00089810E943B1D0F900F90DF91CF91089547
:103AD000CF93DF93CDB7DEB72597CDBFDEBF000014
:103AE00080E094E0FC018181882F90E0817099272B
:103AF00021E0009709F420E0822F882389F70E94B3
:103B00002B1D8B8380918C2490918D2489839A83A3
:103B100080E094E0FC01808591858C839D838C817D
:103B20009D81009779F480E094E0FC018381882FE7
:103B300090E081709927009729F089819A810196F8
:103B400089839A838B810E943B1D89819A81CC0154
:103B5000A0E0B0E0AC01332722278C819D81CC010D
:103B6000A0E0B0E0822B932BA42BB52BBC01CD01A0
:103B70002596CDBFDEBFDF91CF910895CF93DF9320
:103B800000D000D0CDB7DEB769837A838B839C8366
:103B900080E094E021E0FC01228380E094E0298130
:103BA0003A81FC012487358789819A81809390240A
:103BB0009093912489819A81AB81BC81CD01AA2700
:103BC000BB2780938E2490938F24000080E094E0A4
:103BD000FC018181882F90E08170992721E0009776
:103BE00009F420E0822F882389F780E094E022E026
:103BF000FC01238380E094E025E0FC0122832496ED
:103C0000CDBFDEBFDF91CF910895CF93DF9300D07A
:103C1000CDB7DEB789839A8389819A818093922474
:103C2000909393240F900F90DF91CF910895CF93AD
:103C3000DF93CDB7DEB764E080E00E94291880E012
:103C400094E02FEF3FEFFC012287338780E094E080
:103C5000FC011086118683E00E944A1D80E094E0FA
:103C600021E0FC01228380E094E024E0FC01208339
:103C7000DF91CF9108951F920F9200903F000F9215
:103C800011248F939F93CF93DF93CDB7DEB78091AD
:103C90008C2490918D24019680938C2490938D2474
:103CA000DF91CF919F918F910F9000923F000F90E5
:103CB0001F9018951F920F9200903F000F921124B1
:103CC0002F933F934F935F936F937F938F939F9324
:103CD000AF93BF93EF93FF93CF93DF93CDB7DEB74F
:103CE0002897CDBFDEBF20918C2430918D24809108
:103CF0008E2490918F242817390708F463C080E040
:103D000094E021E0FC0122838091922490919324FD
:103D1000009709F457C080918C2490918D24CC0198
:103D2000A0E0B0E0AC013327222780E094E0FC0162
:103D300080859185CC01A0E0B0E0822B932BA42B51
:103D4000B52B89839A83AB83BC8380918E24909119
:103D50008F24CC01A0E0B0E0AC0133272227809172
:103D6000902490919124CC01A0E0B0E0822B932B81
:103D7000A42BB52B8D839E83AF83B8872D813E8185
:103D80004F81588589819A81AB81BC812817390779
:103D90004A075B0758F08D819E81AF81B8850196F7
:103DA000A11DB11D89839A83AB83BC83209192248A
:103DB0003091932489819A81AB81BC81BC01CD0172
:103DC000F90109952896CDBFDEBFDF91CF91FF9114
:103DD000EF91BF91AF919F918F917F916F915F9183
:103DE0004F913F912F910F9000923F000F901F90A5
:103DF00018950F931F93CF93DF93CDB7DEB76097DE
:103E0000CDBFDEBF8F83988749875A876B877C87B2
:103E10000D871E872F87388B2D853E854F855889C6
:103E200089859A85AB85BC85820F931FA41FB51F1A
:103E30000197A109B10929853A854B855C85BC01AB
:103E4000CD010E948F342A833B834C835D838A811A
:103E50009B81AC81BD8181389105A105B10510F030
:103E60008FEF35C08A818E838E81813418F083E094
:103E700089831FC08E81813218F082E0898319C046
:103E80008E81813118F082E8898313C08E81893058
:103E900018F081E089830DC08E81853018F081E8AB
:103EA000898307C08E81833010F0198202C080E8B8
:103EB00089838F819885FC018081982F9C778981E7
:103EC000892B282F8F819885FC01208381E06096C3
:103ED000CDBFDEBFDF91CF911F910F9108951F924B
:103EE0000F9200903F000F9211242F933F934F9316
:103EF0005F936F937F938F939F93AF93BF93EF9352
:103F0000FF93CF93DF93CDB7DEB78091F4209091EC
:103F1000F520009731F08091F4209091F520FC017C
:103F20000995DF91CF91FF91EF91BF91AF919F9153
:103F30008F917F916F915F914F913F912F910F9052
:103F400000923F000F901F9018951F920F920090C3
:103F50003F000F9211242F933F934F935F936F93E2
:103F60007F938F939F93AF93BF93EF93FF93CF93E1
:103F7000DF93CDB7DEB78091F6209091F7200097C0
:103F800031F08091F6209091F720FC010995DF91A6
:103F9000CF91FF91EF91BF91AF919F918F917F91C1
:103FA0006F915F914F913F912F910F9000923F0041
:103FB0000F901F9018951F920F9200903F000F9244
:103FC00011242F933F934F935F936F937F938F931E
:103FD0009F93AF93BF93EF93FF93CF93DF93CDB7AF
:103FE000DEB78091F8209091F920009731F0809110
:103FF000F8209091F920FC010995DF91CF91FF9174
:10400000EF91BF91AF919F918F917F916F915F9150
:104010004F913F912F910F9000923F000F901F9072
:1040200018951F920F9200903F000F9211242F932A
:104030003F934F935F936F937F938F939F93AF9330
:10404000BF93EF93FF93CF93DF93CDB7DEB780910C
:10405000FA209091FB20009731F08091FA20909106
:10406000FB20FC010995DF91CF91FF91EF91BF916A
:10407000AF919F918F917F916F915F914F913F9100
:104080002F910F9000923F000F901F9018951F9254
:104090000F9200903F000F9211242F933F934F9364
:1040A0005F936F937F938F939F93AF93BF93EF93A0
:1040B000FF93CF93DF93CDB7DEB78091FC20909133
:1040C000FD20009731F08091FC209091FD20FC01B3
:1040D0000995DF91CF91FF91EF91BF91AF919F91A2
:1040E0008F917F916F915F914F913F912F910F90A1
:1040F00000923F000F901F9018951F920F92009012
:104100003F000F9211242F933F934F935F936F9330
:104110007F938F939F93AF93BF93EF93FF93CF932F
:10412000DF93CDB7DEB78091FE209091FF200097FE
:1041300031F08091FE209091FF20FC010995DF91E4
:10414000CF91FF91EF91BF91AF919F918F917F910F
:104150006F915F914F913F912F910F9000923F008F
:104160000F901F9018951F920F9200903F000F9292
:1041700011242F933F934F935F936F937F938F936C
:104180009F93AF93BF93EF93FF93CF93DF93CDB7FD
:10419000DEB78091002190910121009731F080914C
:1041A000002190910121FC010995DF91CF91FF91B0
:1041B000EF91BF91AF919F918F917F916F915F919F
:1041C0004F913F912F910F9000923F000F901F90C1
:1041D00018951F920F9200903F000F9211242F9379
:1041E0003F934F935F936F937F938F939F93AF937F
:1041F000BF93EF93FF93CF93DF93CDB7DEB780915B
:10420000022190910321009731F080910221909139
:104210000321FC010995DF91CF91FF91EF91BF91AF
:10422000AF919F918F917F916F915F914F913F914E
:104230002F910F9000923F000F901F9018951F92A2
:104240000F9200903F000F9211242F933F934F93B2
:104250005F936F937F938F939F93AF93BF93EF93EE
:10426000FF93CF93DF93CDB7DEB780910421909178
:104270000521009731F08091042190910521FC01E6
:104280000995DF91CF91FF91EF91BF91AF919F91F0
:104290008F917F916F915F914F913F912F910F90EF
:1042A00000923F000F901F9018951F920F92009060
:1042B0003F000F9211242F933F934F935F936F937F
:1042C0007F938F939F93AF93BF93EF93FF93CF937E
:1042D000DF93CDB7DEB7809106219091072100973B
:1042E00031F08091062190910721FC010995DF9121
:1042F000CF91FF91EF91BF91AF919F918F917F915E
:104300006F915F914F913F912F910F9000923F00DD
:104310000F901F9018951F920F9200903F000F92E0
:1043200011242F933F934F935F936F937F938F93BA
:104330009F93AF93BF93EF93FF93CF93DF93CDB74B
:10434000DEB78091082190910921009731F080918A
:10435000082190910921FC010995DF91CF91FF91EE
:10436000EF91BF91AF919F918F917F916F915F91ED
:104370004F913F912F910F9000923F000F901F900F
:1043800018951F920F9200903F000F9211242F93C7
:104390003F934F935F936F937F938F939F93AF93CD
:1043A000BF93EF93FF93CF93DF93CDB7DEB78091A9
:1043B0000A2190910B21009731F080910A21909170
:1043C0000B21FC010995DF91CF91FF91EF91BF91F6
:1043D000AF919F918F917F916F915F914F913F919D
:1043E0002F910F9000923F000F901F9018951F92F1
:1043F0000F9200903F000F9211242F933F934F9301
:104400005F936F937F938F939F93AF93BF93EF933C
:10441000FF93CF93DF93CDB7DEB780910C219091BE
:104420000D21009731F080910C2190910D21FC011C
:104430000995DF91CF91FF91EF91BF91AF919F913E
:104440008F917F916F915F914F913F912F910F903D
:1044500000923F000F901F9018951F920F920090AE
:104460003F000F9211242F933F934F935F936F93CD
:104470007F938F939F93AF93BF93EF93FF93CF93CC
:10448000DF93CDB7DEB780910E2190910F21009779
:1044900031F080910E2190910F21FC010995DF915F
:1044A000CF91FF91EF91BF91AF919F918F917F91AC
:1044B0006F915F914F913F912F910F9000923F002C
:1044C0000F901F9018951F920F9200903F000F922F
:1044D00011242F933F934F935F936F937F938F9309
:1044E0009F93AF93BF93EF93FF93CF93DF93CDB79A
:1044F000DEB78091102190911121009731F08091C9
:10450000102190911121FC010995DF91CF91FF912C
:10451000EF91BF91AF919F918F917F916F915F913B
:104520004F913F912F910F9000923F000F901F905D
:1045300018951F920F9200903F000F9211242F9315
:104540003F934F935F936F937F938F939F93AF931B
:10455000BF93EF93FF93CF93DF93CDB7DEB78091F7
:10456000122190911321009731F0809112219091A6
:104570001321FC010995DF91CF91FF91EF91BF913C
:10458000AF919F918F917F916F915F914F913F91EB
:104590002F910F9000923F000F901F9018951F923F
:1045A0000F9200903F000F9211242F933F934F934F
:1045B0005F936F937F938F939F93AF93BF93EF938B
:1045C000FF93CF93DF93CDB7DEB780911421909105
:1045D0001521009731F08091142190911521FC0153
:1045E0000995DF91CF91FF91EF91BF91AF919F918D
:1045F0008F917F916F915F914F913F912F910F908C
:1046000000923F000F901F9018951F920F920090FC
:104610003F000F9211242F933F934F935F936F931B
:104620007F938F939F93AF93BF93EF93FF93CF931A
:10463000DF93CDB7DEB780911621909117210097B7
:1046400031F08091162190911721FC010995DF919D
:10465000CF91FF91EF91BF91AF919F918F917F91FA
:104660006F915F914F913F912F910F9000923F007A
:104670000F901F9018951F920F9200903F000F927D
:1046800011242F933F934F935F936F937F938F9357
:104690009F93AF93BF93EF93FF93CF93DF93CDB7E8
:1046A000DEB78091182190911921009731F0809107
:1046B000182190911921FC010995DF91CF91FF916B
:1046C000EF91BF91AF919F918F917F916F915F918A
:1046D0004F913F912F910F9000923F000F901F90AC
:1046E00018951F920F9200903F000F9211242F9364
:1046F0003F934F935F936F937F938F939F93AF936A
:10470000BF93EF93FF93CF93DF93CDB7DEB7809145
:104710001A2190911B21009731F080911A219091DC
:104720001B21FC010995DF91CF91FF91EF91BF9182
:10473000AF919F918F917F916F915F914F913F9139
:104740002F910F9000923F000F901F9018951F928D
:104750000F9200903F000F9211242F933F934F939D
:104760005F936F937F938F939F93AF93BF93EF93D9
:10477000FF93CF93DF93CDB7DEB780911C2190914B
:104780001D21009731F080911C2190911D21FC0189
:104790000995DF91CF91FF91EF91BF91AF919F91DB
:1047A0008F917F916F915F914F913F912F910F90DA
:1047B00000923F000F901F9018951F920F9200904B
:1047C0003F000F9211242F933F934F935F936F936A
:1047D0007F938F939F93AF93BF93EF93FF93CF9369
:1047E000DF93CDB7DEB780911E2190911F210097F6
:1047F00031F080911E2190911F21FC010995DF91DC
:10480000CF91FF91EF91BF91AF919F918F917F9148
:104810006F915F914F913F912F910F9000923F00C8
:104820000F901F9018951F920F9200903F000F92CB
:1048300011242F933F934F935F936F937F938F93A5
:104840009F93AF93BF93EF93FF93CF93DF93CDB736
:10485000DEB78091202190912121009731F0809145
:10486000202190912121FC010995DF91CF91FF91A9
:10487000EF91BF91AF919F918F917F916F915F91D8
:104880004F913F912F910F9000923F000F901F90FA
:1048900018951F920F9200903F000F9211242F93B2
:1048A0003F934F935F936F937F938F939F93AF93B8
:1048B000BF93EF93FF93CF93DF93CDB7DEB7809194
:1048C000222190912321009731F080912221909113
:1048D0002321FC010995DF91CF91FF91EF91BF91C9
:1048E000AF919F918F917F916F915F914F913F9188
:1048F0002F910F9000923F000F901F9018951F92DC
:104900000F9200903F000F9211242F933F934F93EB
:104910005F936F937F938F939F93AF93BF93EF9327
:10492000FF93CF93DF93CDB7DEB780912421909191
:104930002521009731F08091242190912521FC01BF
:104940000995DF91CF91FF91EF91BF91AF919F9129
:104950008F917F916F915F914F913F912F910F9028
:1049600000923F000F901F9018951F920F92009099
:104970003F000F9211242F933F934F935F936F93B8
:104980007F938F939F93AF93BF93EF93FF93CF93B7
:10499000DF93CDB7DEB78091262190912721009734
:1049A00031F08091262190912721FC010995DF911A
:1049B000CF91FF91EF91BF91AF919F918F917F9197
:1049C0006F915F914F913F912F910F9000923F0017
:1049D0000F901F901895CF93DF9300D0CDB7DEB71F
:1049E00089839A8389819A81FC018481282F20619F
:1049F00089819A81FC0124830F900F90DF91CF91E0
:104A00000895CF93DF93CDB7DEB72597CDBFDEBF37
:104A100089839A836B834C832D839B818C81892B23
:104A2000982F8D81882311F088E001C080E0892BC8
:104A3000282F89819A81FC0125832596CDBFDEBF71
:104A4000DF91CF910895CF93DF9300D0CDB7DEB73C
:104A500089839A8389819A81FC018481282F286027
:104A600089819A81FC0124830F900F90DF91CF916F
:104A70000895CF93DF9300D01F92CDB7DEB789831F
:104A80009A836B8389819A81FC018581982F9F731A
:104A90008B81892B282F89819A81FC01258323967C
:104AA000CDBFDEBFDF91CF910895CF93DF9300D0CC
:104AB000CDB7DEB789839A8389819A81FC01818190
:104AC000882F90E08072992721E0009709F420E078
:104AD000822F0F900F90DF91CF910895CF93DF93A6
:104AE00000D0CDB7DEB789839A8389819A81FC0192
:104AF0008181882F90E08078992721E0009709F440
:104B000020E0822F0F900F90DF91CF910895CF93E7
:104B1000DF93CDB7DEB780E098E4A8EEB1E0BC014A
:104B2000CD01DF91CF910895CF93DF931F92CDB741
:104B3000DEB719820E948725DC01CB012981222F53
:104B400030E0022E04C0B695A795979587950A94F4
:104B5000D2F7BC01CD010F90DF91CF910895CF9393
:104B6000DF93CDB7DEB70E949425DC01CB01BC01F9
:104B7000CD01DF91CF910895CF93DF93CDB7DEB70D
:104B80000E94AF25DC01CB01BC01CD01DF91CF91AB
:104B90000895CF93DF9300D0CDB7DEB789839A8392
:104BA00089819A81009709F406C189819A81803CA4
:104BB000910529F460E180E00E942918FCC08981F8
:104BC0009A81811524E0920729F464E080E00E9434
:104BD0002918F1C089819A81803821E0920729F44F
:104BE00062E080E00E942918E6C089819A818115DF
:104BF00021E0920729F461E080E00E942918DBC0DF
:104C000089819A81803823E0920729F461E081E06C
:104C10000E942918D0C089819A81811522E09207CB
:104C200029F462E081E00E942918C5C089819A8137
:104C3000803223E0920729F464E082E00E94291880
:104C4000BAC089819A81811528E0920729F461E030
:104C500083E00E942918AFC089819A81811529E0DB
:104C6000920729F461E084E00E942918A4C0898198
:104C70009A8181152AE0920729F461E085E00E947B
:104C8000291899C089819A81803428E0920729F4F3
:104C900062E083E00E9429188EC089819A81803465
:104CA00029E0920729F462E084E00E94291883C079
:104CB00089819A81803928E0920729F464E083E0B1
:104CC0000E94291878C089819A81803929E0920749
:104CD00029F464E084E00E9429186DC089819A81DA
:104CE00080392AE0920729F464E085E00E942918BF
:104CF00062C089819A81803C28E0920729F468E0AB
:104D000083E00E94291857C089819A81803C29E05C
:104D1000920729F468E084E00E9429184CC0898138
:104D20009A81803A28E0920729F460E183E00E94AA
:104D3000291841C089819A81803A29E0920729F493
:104D400060E184E00E94291836C089819A81803A06
:104D50002AE0920729F460E185E00E9429182BC01F
:104D600089819A81803B28E0920729F460E283E000
:104D70000E94291820C089819A81803B29E09207EE
:104D800029F460E284E00E94291815C089819A8183
:104D9000803824E0920729F460E483E00E94291817
:104DA0000AC089819A81803A24E0920721F460E464
:104DB00085E00E9429180F900F90DF91CF91089500
:104DC0000F931F93CF93DF93CDB7DEB72597CDBF5A
:104DD000DEBF8A839B836C837D838A819B810E9453
:104DE000C9258A819B8160E00E9439258C819D8143
:104DF000FC0126818C819D81FC0145818C819D81F6
:104E0000FC0134818A819B81632F0E9401250E94CD
:104E1000BC259B01AC018C819D81FC01808191812D
:104E2000A281B381EA81FB8189019A01AC01BD01B4
:104E3000CF010E94672789838A819B810E94232555
:104E40008A819B810E94EB2489812596CDBFDEBF9C
:104E5000DF91CF911F910F910895CF93DF9300D0F1
:104E60001F92CDB7DEB789839A836B830000898157
:104E70009A810E945525982F81E089278823B9F7C8
:104E800089819A812B81FC01208380E090E0239628
:104E9000CDBFDEBFDF91CF910895CF93DF9300D0D8
:104EA000CDB7DEB789839A83000089819A810E94F9
:104EB0006E25982F81E089278823B9F789819A8107
:104EC000FC0180810F900F90DF91CF910895EF92B8
:104ED000FF920F931F93CF93DF93CDB7DEB76F97FA
:104EE000CDBFDEBF8E8B9F8B488F598F6A8F7B8F94
:104EF0000C8F1D8F2E8F3F8F8C8D9D8DAE8DBF8D16
:104F0000689412F8B695A795979587951694D1F75A
:104F10008E879F87A88BB98B8C8D9D8DAE8DBF8D15
:104F2000072E76E1B695A795979587957A95D1F74F
:104F3000702D8A879B87AC87BD878E899F89FC01EE
:104F40008481882F90E0847099270097C1F48E8522
:104F50009F85A889B989B695A795979587958E87D6
:104F60009F87A88BB98B8A859B85AC85BD85B695B7
:104F7000A795979587958A879B87AC87BD87288D4E
:104F8000398D4A8D5B8D8E859F85A889B989821759
:104F90009307A407B50768F0288D398D4A8D5B8D7E
:104FA0008A859B85AC85BD85281739074A075B072D
:104FB00010F480E03CC18E899F89FC018481882F98
:104FC00090E084709927009761F4888D998DAA8D5F
:104FD000BB8D880F991FAA1FBB1F888F998FAA8F1F
:104FE000BB8F8FEF90E0A0E0B0E08E839F83A88717
:104FF000B9878C8D9D8DAE8DBF8D288D398D4A8D55
:105000005B8DBC01CD010E948F342A8B3B8B4C8B76
:105010005D8B89EF898328C02A893B894C895D890A
:105020008E819F81A885B985281739074A075B07B4
:10503000F8F08E819F81A885B985880F991FAA1FD6
:10504000BB1F8E839F83A887B98789818D3F4CF4CE
:105050008E819F81A885B98581608E839F83A88773
:10506000B98789818F5F898389818730ACF201C0DC
:105070000000898188230CF088C0888D998DAA8DC5
:10508000BB8D880F991FAA1FBB1F880F991FAA1FCE
:10509000BB1F880F991FAA1FBB1F2C8D3D8D4E8DE6
:1050A0005F8D79018A01E81AF90A0A0B1B0BD801F6
:1050B000C7018C8F9D8FAE8FBF8F89818E3F84F506
:1050C0008981992787FD90952DEF3FEF281B390B9C
:1050D0008C8D9D8DAE8DBF8D7C018D0104C0EE0C3D
:1050E000FF1C001F111F2A95D2F7A8019701888D78
:1050F000998DAA8DBB8DB695A79597958795820FAB
:10510000931FA41FB51F288D398D4A8D5B8DBC015F
:10511000CD010E948F342A833B834C835D836EC014
:105120008981992787FD90959C012D5F3F4F888D40
:10513000998DAA8DBB8D04C0880F991FAA1FBB1F14
:105140002A95D2F7888F998FAA8FBB8F888D998DDA
:10515000AA8DBB8D9C01AD01569547953795279536
:105160008C8D9D8DAE8DBF8D820F931FA41FB51F9B
:10517000288D398D4A8D5B8DBC01CD010E948F3405
:105180002A833B834C835D8339C08981992787FDBE
:1051900090959C012D5F3F4F888D998DAA8DBB8D79
:1051A00004C0880F991FAA1FBB1F2A95D2F7888FAA
:1051B000998FAA8FBB8F888D998DAA8DBB8D9C01ED
:1051C000AD0156954795379527958C8D9D8DAE8D64
:1051D000BF8D820F931FA41FB51F288D398D4A8D57
:1051E0005B8DBC01CD010E948F34DA01C9010197AA
:1051F000A109B1098A839B83AC83BD838A819B818A
:10520000AC81BD81892F9A2FAB2FBB27982F9F7020
:1052100089818295807F292F282B8E899F89FC0187
:1052200027832A818E899F89FC01268381E06F96DE
:10523000CDBFDEBFDF91CF911F910F91FF90EF9017
:105240000895CF93DF9300D0CDB7DEB789839A83DB
:1052500089819A81FC018081282F206489819A812B
:10526000FC0120830F900F90DF91CF910895CF9391
:10527000DF9300D01F92CDB7DEB789839A836B830B
:1052800089819A812B81FC0123832396CDBFDEBFC8
:10529000DF91CF910895CF93DF9300D0CDB7DEB7E4
:1052A00089839A8389819A81FC0183810F900F9071
:1052B000DF91CF910895CF93DF9300D0CDB7DEB7C4
:1052C00089839A8389819A81FC018281881F88273A
:1052D000881F0F900F90DF91CF9108956150710951
:1052E00081099109D9F708952F923F924F925F92C9
:1052F0006F927F928F929F92AF92BF92CF92DF92E6
:10530000EF92FF920F931F93CF93DF9300D000D0C3
:10531000CDB7DEB769837A838B839C8389819A8139
:10532000AB81BC811C012D01612C712C430120E05B
:1053300038E448EE51E060E070E080E090E0A22EBA
:10534000B32EC42ED52EE62EF72E082F192F222D80
:10535000332D442D552D662D772D882D992D0E94A6
:10536000B134222E332E442E552E662E772E882EC3
:10537000992EA22CB32CC42CD52CE62CF72C082D5E
:10538000192D2A2D3B2D4C2D5D2D6E2D7F2D802F1F
:10539000912F29513C4F4F4F5F4F6F4F7F4F8F4F92
:1053A0009F4FA22EB32EC42ED52EE62EF72E082FF9
:1053B000192F2A2D3B2D4C2D5D2D6E2D7F2D802FED
:1053C000912F0E94D801DC01CB0120E030E84BEBAB
:1053D00055E4BC01CD010E945A03DC01CB01BC01A4
:1053E000CD010E941D01A22EB32EC42ED52EE62E75
:1053F000F72E082F192FD601C501BC01CD010E943F
:105400006E292496CDBFDEBFDF91CF911F910F9102
:10541000FF90EF90DF90CF90BF90AF909F908F90D4
:105420007F906F905F904F903F902F900895CF9214
:10543000DF92EF92FF920F931F93CF93DF931F9210
:10544000CDB7DEB780EC98E00E944219C12CD12C78
:10545000760100E412E42FE030E040E0CE01019656
:10546000BC0180EC98E00E94661980EC98E00E94F4
:1054700021298FE49AE28093F1269093F22684E723
:1054800099E280932727909328270F90DF91CF915F
:105490001F910F91FF90EF90DF90CF900895CF93E1
:1054A000DF931F92CDB7DEB78983698180EC98E0E6
:1054B0000E943729000080EC98E00E945B29982F19
:1054C00081E089278823B9F780EC98E00E944B2976
:1054D0000F90DF91CF910895CF93DF9300D000D04C
:1054E000CDB7DEB769837A838B839C838091282133
:1054F00090912921A0912A21B0912B210196A11DE3
:10550000B11D8093282190932921A0932A21B09343
:105510002B2180E094E02FEF3FEFFC0122873387BF
:1055200089819A81AB81BC81BC01CD010E94BE1DE5
:105530000E94A02A2496CDBFDEBFDF91CF910895AF
:10554000CF93DF9300D000D0CDB7DEB786E193E2F2
:105550008B839C83809198248F5F809398241982F9
:105560001A826FC08B819C81FC018081882309F4A1
:105570005EC08B819C81FC01848195819C012150BE
:1055800031098B819C81FC01248335838B819C8133
:10559000FC0184819581009709F049C08B819C8131
:1055A000FC0182859385FC0109958B819C81FC011E
:1055B0008381882F90E021E0009709F420E081E0CA
:1055C0008227882F90E0282F21708B819C81FC01FD
:1055D00023838B819C81FC018381882331F08B8123
:1055E0009C81FC018681978105C08B819C81FC0197
:1055F000808591852B813C81F901848395838B8102
:105600009C81FC01818192819C01215031098B8117
:105610009C81FC01218332838B819C81FC018181EF
:105620009281009721F48B819C81FC0110828981F9
:105630009A81019689839A838B819C810C968B83B6
:105640009C8389819A81843091050CF48BCF809161
:10565000942490919524A0919624B09197248160F0
:105660008093942490939524A0939624B0939724A8
:1056700080919824853008F4A2C0109298248091DB
:10568000942490919524A0919624B09197248260BF
:105690008093942490939524A0939624B093972478
:1056A00080919E248F5F80939E2480919E248230DF
:1056B00008F485C010929E2480919D248F5F809372
:1056C0009D248091942490919524A0919624B0914A
:1056D000972484608093942490939524A093962497
:1056E000B093972480919D24853008F468C010926F
:1056F0009D2480919A248F5F80939A248091942492
:1057000090919524A0919624B091972488608093DD
:10571000942490939524A0939624B09397248091F9
:105720009A24823008F44BC010929A2480919B24D2
:105730008F5F80939B248091942490919524A091D5
:105740009624B0919724806180939424909395241B
:10575000A0939624B093972480919B248A3078F16B
:105760008091942490919524A0919624B0919724AF
:1057700080628093942490939524A0939624B09370
:10578000972410929B2480919C248F5F80939C246B
:1057900080919C248C3398F080919424909195244E
:1057A000A0919624B0919724806480939424909340
:1057B0009524A0939624B093972410929C24249629
:1057C000CDBFDEBFDF91CF910895CF93DF9300D09F
:1057D0001F92CDB7DEB789839A836B8389819A81C3
:1057E000FC018381282F2F7C8B81882F90E082956C
:1057F0009295907F9827807F9827822B282F8981E8
:105800009A81FC0123832396CDBFDEBFDF91CF9128
:105810000895CF93DF9300D01F92CDB7DEB7898371
:105820009A836B8389819A81FC018381282F237F4E
:105830008B81882F90E0880F991F880F991F822BEA
:10584000282F89819A81FC0123832396CDBFDEBF57
:10585000DF91CF910895CF93DF9300D0CDB7DEB71E
:1058600089839A8389819A81FC01238189819A8124
:10587000FC018281F22FF81B8F2F282F89819A81BA
:10588000FC01858182230F900F90DF91CF910895C5
:10589000CF93DF9300D0CDB7DEB789839A83898118
:1058A0009A81FC01238189819A81FC01928181E0A6
:1058B000291709F080E00F900F90DF91CF910895A4
:1058C000CF93DF9300D0CDB7DEB789839A838981E8
:1058D0009A810E942B2C282F89819A81FC01948126
:1058E00081E0291709F080E00F900F90DF91CF91B0
:1058F0000895CF93DF93CDB7DEB72797CDBFDEBF37
:105900008A839B834C835D836E837F838A819B81A3
:105910000E94602C882319F081E090E029C08A81E0
:105920009B81FC01838189838A819B81FC01208189
:1059300031818A819B81FC018581982F969589818F
:105940008923882F90E0820F931F2C81FC012083F4
:1059500089818F5F282F8A819B81FC018581822329
:1059600089838A819B812981FC01238380E090E0E7
:105970002796CDBFDEBFDF91CF910895CF93DF9300
:10598000CDB7DEB72597CDBFDEBF8A839B836C83FF
:105990007D838A819B810E94482C882319F082E0B4
:1059A00090E02CC08A819B81FC01828189838A815D
:1059B0009B81FC01208131818A819B81FC01858151
:1059C000982F969589818923882F90E0820F931FC5
:1059D000FC0120818C819D81FC01208389818F5F66
:1059E000282F8A819B81FC018581822389838A817A
:1059F0009B812981FC01228380E090E02596CDBF28
:105A0000DEBFDF91CF9108951F920F9200903F006B
:105A10000F9211242F933F934F935F936F937F9334
:105A20008F939F93AF93BF93EF93FF93CF93DF93A6
:105A30001F92CDB7DEB780EB99E00E944D27898396
:105A40008981882F90E0A0E0B0E0AC01BD018BEF30
:105A500095E20E94792C8091282190912921A09192
:105A60002A21B0912B218093EA209093EB20A093E0
:105A7000EC20B093ED200F90DF91CF91FF91EF914B
:105A8000BF91AF919F918F917F916F915F914F9156
:105A90003F912F910F9000923F000F901F9018950B
:105AA0001F920F9200903F000F9211242F933F936B
:105AB0004F935F936F937F938F939F93AF93BF9316
:105AC000EF93FF93CF93DF931F92CDB7DEB785E7B8
:105AD00095E20E94482C982F81E08927882371F055
